:100000000C9438000C9455000C9455000C94550039
:100010000C9455000C9455000C9455000C9455000C
:100020000C9455000C9455000C9455000C945500FC
:100030000C9455000C9455000C9455000C945500EC
:100040000C9455000C9455000C946B000C945500C6
:100050000C9455000C9455000C9455000C945500CC
:100060000C9455000C9455004D41583732313900ED
:1000700011241FBECFEFD8E0DEBFCDBF11E0A0E05E
:10008000B1E0ECE3FEE002C005900D92AA31B107A9
:10009000D9F721E0AAE1B1E001C01D92AE34B20768
:1000A000E1F70E94CB020C941C070C940000229AEA
:1000B0002A9A239A259A9CB590619CBD9CB5892B60
:1000C0008CBD8CB580648CBD08958EBD0DB407FECB
:1000D000FDCF8EB508951F920F920FB60F92112487
:1000E0008F93EF93FF93E0911B01F0E08091C600A6
:1000F000E45EFE4F808380911B018F5F80931B0124
:1001000080911B01815080931A01FF91EF918F9193
:100110000F900FBE0F901F90189580911B010895AE
:10012000E0911A01F0E0E45EFE4F80810895E091D5
:100130001A01F0E0E45EFE4F808190911B01915026
:1001400090931B0190911A01915090931A01089578
:1001500080911A01089580E090E0FC01E45EFE4F7A
:100160001082019682339105C1F710921A01109204
:100170001B0108951092C50087E68093C400E1EC4E
:10018000F0E0808180688083808188618083E2ECF8
:10019000F0E080818660808308959091C00095FF93
:1001A000FCCF8093C60008958091C00087FFFCCFEC
:1001B0008091C60008950F931F93CF938C01C0E0E8
:1001C000F801EC0FF11D8081882321F00E94CD0001
:1001D000CF5FF6CFCF911F910F9108950E94DB0062
:1001E0008DE00E94CD008AE00C94CD00FF920F9329
:1001F0001F93CF93DF93CDB7DEB72A970FB6F8944E
:10020000DEBF0FBECDBFF22E8E010F5F1F4F4A30F3
:1002100059F0403181F04830F9F49F938F937F93E8
:100220006F9384E091E00DC09F938F937F936F93C2
:1002300080E091E006C09F938F937F936F938AE055
:1002400091E09F938F931F930F930E9432040FB6F8
:10025000F894DEBF0FBECDBFC801FF2019F00E9489
:10026000EE0002C00E94DB002A960FB6F894DEBFB3
:100270000FBECDBFDF91CF911F910F91FF900895D9
:10028000BF92CF92DF92EF92FF920F931F93CF9383
:10029000DF93CDB7DEB72A970FB6F894DEBF0FBE57
:1002A000CDBF6B017C01B42E0E9445037F936F93F9
:1002B0008FE091E09F938F938E010F5F1F4F1F93ED
:1002C0000F930E943204C8010E94DB0020E030E05E
:1002D00048EC52E4C701B6010E949D030E94450309
:1002E000CB0164E670E00E9431039F938F938EE010
:1002F00091E09F938F931F930F930E9432040FB648
:10030000F894DEBF0FBECDBFC801BB2019F00E941C
:10031000EE0002C00E94DB002A960FB6F894DEBF02
:100320000FBECDBFDF91CF911F910F91FF90EF9046
:10033000DF90CF90BF900895FF920F931F93CF93BC
:10034000DF93CDB7DEB72A970FB6F894DEBF0FBEA6
:10035000CDBFF22E8E010F5F1F4F4A3059F0403152
:1003600081F04830F9F49F938F937F936F9386E0E9
:1003700091E00DC09F938F937F936F9380E091E006
:1003800006C09F938F937F936F938AE091E09F9332
:100390008F931F930F930E9432040FB6F894DEBF21
:1003A0000FBECDBFC801FF2019F00E94EE0002C0B1
:1003B0000E94DB002A960FB6F894DEBF0FBECDBFB9
:1003C000DF91CF911F910F91FF900895FF920F93AE
:1003D0001F93CF93DF9300D000D0CDB7DEB7F42EBC
:1003E0008E010F5F1F4F6A3049F0603161F0683055
:1003F000D1F41F928F9382E191E009C01F928F93F5
:100400008FE091E004C01F928F9385E191E09F936C
:100410008F931F930F930E9432040F900F900F90B1
:100420000F900F900F90C801FF2019F00E94EE006E
:1004300002C00E94DB000F900F900F900F90DF9191
:10044000CF911F910F91FF9008950F931F93CF931A
:10045000DF938C01C0E0D0E0C017D10759F0FE0156
:10046000E45EFE4F8081882329F080810E94CD00C8
:100470002196F2CF89E191E0DF91CF911F910F9109
:100480000C94EE00EF92FF920F931F93CF93DF93A4
:10049000EC018C017C0183E0E80EF11C40E06AE095
:1004A000F80181918F010E94E6018EE20E94CD0049
:1004B0000E151F0599F741E06AE08B81DF91CF911E
:1004C0001F910F91FF90EF900C94E601CF93DF9373
:1004D000EC01CE01FE012491222331F02196FC0192
:1004E00084910E94CD00F5CFDF91CF9108950E94B5
:1004F000660289E191E00C94EE000C946500CF93C4
:10050000C62F2A980E9465008C2F0E9465002A9AA7
:10051000CF91089560E080E00C947F02682F8CE01A
:100520000C947F02682F8AE00C947F020C947F0267
:10053000682F89E00C947F02682F8BE00C947F0277
:10054000CF9381E00E948E0280E00E949802C0E07A
:10055000CF5F60E08C2F0E947F02C830C9F780E037
:10056000CF910C948E021F93CF93DF93182FD62F29
:10057000C42F81E00E94570081E00E948E02812FEB
:100580000E9498028D2F0E9492028C2FDF91CF91B2
:100590001F910C949C022FEF83ED90E3215080403B
:1005A0009040E1F700C000000E94BA0088E690E0A9
:1005B0000E94770247E06FE08FEF0E94B3022FEFB7
:1005C00083ED90E3215080409040E1F700C00000AF
:1005D0002FEF83ED90E3215080409040E1F700C081
:1005E00000002FEF83ED90E3215080409040E1F731
:1005F00000C000000E94A0022FEF83ED90E3215085
:1006000080409040E1F700C0000047E06FE08FEFCE
:100610000E94B30260E0C1E0C60F8C2F0E949602D8
:100620002FEF81EE94E0215080409040E1F700C030
:1006300000006C2FC83079F72FEF83ED90E3215045
:1006400080409040E1F700C000002FEF83ED90E381
:10065000215080409040E1F700C000000E94A002BD
:10066000FFCFAA1BBB1B51E107C0AA1FBB1FA617C8
:10067000B70710F0A61BB70B881F991F5A95A9F74B
:1006800080959095BC01CD0108950E947C0388F06F
:100690009F5798F0B92F9927B751B0F0E1F0660F46
:1006A000771F881F991F1AF0BA95C9F714C0B13087
:1006B00091F00E949603B1E008950C949603672F81
:1006C000782F8827B85F39F0B93FCCF386957795B6
:1006D0006795B395D9F73EF490958095709561959F
:1006E0007F4F8F4F9F4F089557FD9058440F551FD0
:1006F00059F05F3F71F04795880F97FB991F61F0A4
:100700009F3F79F087950895121613061406551F1A
:10071000F2CF4695F1DF08C0161617061806991F86
:10072000F1CF86957105610508940895E894BB277B
:1007300066277727CB0197F908950E94B0030C94A0
:1007400021040E94130438F00E941A0420F095231B
:1007500011F00C940A040C94100411240C949703C7
:100760000E94740370F3959FC1F3950F50E0551FDD
:10077000629FF001729FBB27F00DB11D639FAA27F6
:10078000F00DB11DAA1F649F6627B00DA11D661F45
:10079000829F2227B00DA11D621F739FB00DA11D66
:1007A000621F839FA00D611D221F749F3327A00D20
:1007B000611D231F849F600D211D822F762F6A2FBC
:1007C00011249F5750409AF0F1F088234AF0EE0F21
:1007D000FF1FBB1F661F771F881F91505040A9F74E
:1007E0009E3F510580F00C940A040C9497035F3FE0
:1007F000E4F3983ED4F3869577956795B795F7958A
:10080000E7959F5FC1F7FE2B880F911D9695879501
:1008100097F9089597F99F6780E870E060E0089580
:100820009FEF80EC089500240A9416161706180608
:100830000906089500240A941216130614060506E4
:100840000895092E0394000C11F4882352F0BB0F75
:1008500040F4BF2B11F460FF04C06F5F7F4F8F4FD8
:100860009F4F0895AEE0B0E0E8E3F4E00C94F306A7
:100870000D891E8986E08C831A8309838FEF9FE799
:100880009E838D83AE01475E5F4F6F89788DCE0169
:1008900001960E945404EF81F885E00FF11F108249
:1008A0002E96E4E00C940F07ABE0B0E0EAE5F4E04C
:1008B0000C94E5066C017B018A01FC01178216820B
:1008C000838181FFCCC1CE0101963C01F601938169
:1008D000F70193FD859193FF81917F01882309F4AE
:1008E000BAC1853239F493FD859193FF81917F01DF
:1008F000853229F4B60190E00E944B06E7CF912C97
:10090000212C312CFFE1F315D8F08B3279F038F43B
:10091000803279F08332A1F4232D20611DC08D3205
:1009200061F0803369F4232D216016C0832D82602D
:10093000382EE32DE4603E2E2AC0F32DF8601DC052
:1009400037FC2DC020ED280F2A3040F08E32B9F44C
:1009500036FC81C1232D2064322E19C036FE06C01C
:100960008AE0989E200D1124922E11C0EAE02E9E5E
:10097000200D1124222EF32DF0623F2E08C08C365C
:1009800021F4832D8068382E02C0883641F4F701A7
:1009900093FD859193FF81917F018111B3CF982FB2
:1009A0009F7D9554933028F40C5F1F4F9FE39983EC
:1009B0000DC0833631F0833771F0833509F059C0AB
:1009C00021C0F801808189830E5F1F4F88248394A2
:1009D000912C530113C02801F2E04F0E511CF80175
:1009E000A080B18036FE03C0692D70E002C06FEFB9
:1009F0007FEFC5010E9440064C018201F32DFF7775
:100A00003F2E16C0280122E0420E511CF801A080A2
:100A1000B18036FE03C0692D70E002C06FEF7FEF3A
:100A2000C5010E9435064C01F32DF0683F2E82016E
:100A300033FC1BC0822D90E088169906B0F4B601F5
:100A400080E290E00E944B062A94F4CFF50137FC37
:100A5000859137FE81915F01B60190E00E944B06BF
:100A600021102A9421E0821A91088114910471F7CF
:100A7000E8C0843611F0893641F5F80137FE07C029
:100A800060817181828193810C5F1F4F08C06081FA
:100A90007181072E000C880B990B0E5F1F4FF32DF1
:100AA000FF763F2E97FF09C09095809570956195D0
:100AB0007F4F8F4F9F4FF0683F2E2AE030E0A30119
:100AC0000E948706882E861845C0853731F4232D6D
:100AD0002F7EB22E2AE030E025C0932D997FB92ECB
:100AE0008F36C1F018F4883579F0B5C0803719F029
:100AF000883721F0B0C0E92FE061BE2EB4FE0DC0F2
:100B0000FB2DF460BF2E09C034FE0AC0292F2660D9
:100B1000B22E06C028E030E005C020E130E002C07F
:100B200020E132E0F801B7FE07C060817181828167
:100B300093810C5F1F4F06C06081718180E090E05F
:100B40000E5F1F4FA3010E948706882E8618FB2D7B
:100B5000FF773F2E36FE0DC0232D2E7FA22E891447
:100B600058F434FE0BC032FC09C0832D8E7EA82EB3
:100B700005C0B82CA32C03C0B82C01C0B92CA4FE0E
:100B80000FC0FE01E80DF11D8081803321F49A2D04
:100B9000997EA92E09C0A2FE06C0B394B39404C0E6
:100BA0008A2D867809F0B394A3FC11C0A0FE06C07C
:100BB000B21488F4280C922C9B180EC0B21460F466
:100BC000B60180E290E00E944B06B394F7CFB214D6
:100BD00018F42B1802C0982C212CA4FE10C0B601CA
:100BE00080E390E00E944B06A2FE17C0A1FC03C068
:100BF00088E790E002C088E590E0B6010CC08A2D3D
:100C0000867859F0A1FE02C08BE201C080E2A7FC09
:100C10008DE2B60190E00E944B06891438F4B601CB
:100C200080E390E00E944B069A94F7CF8A94F301F8
:100C3000E80DF11D8081B60190E00E944B06811005
:100C4000F5CF222009F442CEB60180E290E00E9466
:100C50004B062A94F6CFF6018681978102C08FEF6A
:100C60009FEF2B96E2E10C940107FC010590615087
:100C700070400110D8F7809590958E0F9F1F0895B2
:100C8000FC016150704001900110D8F7809590955B
:100C90008E0F9F1F08950F931F93CF93DF93FB0138
:100CA000238121FD03C08FEF9FEF2CC022FF16C0D0
:100CB00046815781248135814217530744F4A0812E
:100CC000B1819D012F5F3F4F318320838C9326811B
:100CD00037812F5F3F4F3783268314C08B01EC0190
:100CE000FB010084F185E02D0995892BE1F6D801FF
:100CF00016968D919C911797019617969C938E93BB
:100D00001697CE01DF91CF911F910F910895FA01AF
:100D1000AA27283051F1203181F1E8946F936E7F3A
:100D20006E5F7F4F8F4F9F4FAF4FB1E03ED0B4E02B
:100D30003CD0670F781F891F9A1FA11D680F791F6C
:100D40008A1F911DA11D6A0F711D811D911DA11D7D
:100D500020D009F468943F912AE0269F112430198D
:100D6000305D3193DEF6CF010895462F4770405D28
:100D70004193B3E00FD0C9F7F6CF462F4F70405DD7
:100D80004A3318F0495D31FD4052419302D0A9F732
:100D9000EACFB4E0A6959795879577956795BA952C
:100DA000C9F700976105710508959B01AC010A2EF2
:100DB00006945795479537952795BA95C9F7620FC9
:100DC000731F841F951FA01D08952F923F924F926D
:100DD0005F926F927F928F929F92AF92BF92CF92CB
:100DE000DF92EF92FF920F931F93CF93DF93CDB7D4
:100DF000DEB7CA1BDB0B0FB6F894DEBF0FBECDBF4C
:100E000009942A88398848885F846E847D848C841C
:100E10009B84AA84B984C884DF80EE80FD800C8125
:100E20001B81AA81B981CE0FD11D0FB6F894DEBF08
:0C0E30000FBECDBFED010895F894FFCF78
:100E3C00256C64003078256C6F00256C58002E25CD
:0A0E4C006400256F0030782558007F
:00000001FF
